:1000000063C0B0C27AC079C078C077C076C075C00E
:1000100074C073C072C071C070C06FC06EC06DC05C
:100020006CC06BC06AC01201100100000008C0164D
:10003000E4050100010200010902650002010080DF
:100040003209040000000101000009240100010937
:10005000000101090401000201030000072401005E
:1000600001410006240201010006240202020009E7
:100070002403010301020100092403020401010118
:10008000000905010308000A000005250101010916
:1000900005810308000A0000052501010304030986
:1000A0000414036B00730068006F006A0069002E7F
:1000B000006A00700012034D004900440049004CE2
:1000C0000069006E006B000011241FBECFEDCDBF94
:1000D00010E0A0E6B0E0E0EBF7E002C005900D9282
:1000E000A236B107D9F710E0A2E6B0E001C01D9238
:1000F000AD3CB107E1F766D059C382CFFC018381E3
:10010000813041F486E290E09093B2008093B10098
:1001100082E1089588E390E09093B2008093B1006B
:1001200085E608958FEF0895FC01108211821282F6
:10013000138214821582168287E0089581E0089563
:10014000AC019091620020E030E0E92FF0E0EA5845
:10015000FF4FDA01A20FB31F8C9180839F5F9F71C5
:100160002F5F3F4F2430310581F7653020F04C5F21
:100170005F4F6450E8CF909362000895E1DF0895E7
:1001800090916500E92FF0E0EA59FF4F80839330AA
:10019000A1F48091660090916700A0916800B091F1
:1001A000690080936E0090936F00A0937000B093ED
:1001B00071001092650081E008959F5F9093650043
:1001C00080E008951F932EE088E190E00FB6F89448
:1001D000A89581BD0FBE21BD81ED82BB8EE281BBA2
:1001E00082E281BB12B887E089B988E18AB981E0EF
:1001F00087BB2DD07894A8955CD05D9B10C0909162
:10020000630080916200891751F0E92FF0E0EA580D
:10021000FF4F80818CB99F5F9F71909363005F9BBC
:1002200007C0109164008CB1ABDF182B10936400F1
:100230008091A20084FFDFCF809164008823D9F2EF
:100240008EE690E064E010D010926400D4CF85B7C1
:10025000836085BF8BB780648BBF8BE48093A300E2
:100260008AE58093A20008951F93DC01162F8091E8
:10027000A2008E31E1F08091A20084FF07C080913E
:10028000A30098E889278093A30003C08AE58093A0
:10029000A200912FE4EAF0E08D9181939150E1F773
:1002A00084EA90E0612F5AD11C5F1093A2001F9145
:1002B00008951F93CF93DF936091B300635067FD60
:1002C000CBC08091B000CCE0D0E0C81BD109C954AC
:1002D000DF4F8091AF00803118F4CE014FDFBAC0FC
:1002E0008D3209F0A7C0683009F0B4C083EC809368
:1002F00097008AE580936000109296009881892F7C
:10030000807621F0CE010EDF282F81C02A813C812A
:100310001092A0008981882381F49F71923049F462
:10032000313839F48091A2008E3119F481E0809344
:10033000A0001092A10022E063C0813011F0833050
:1003400089F4222309F05BC0313809F058C08130AC
:1003500011F08EE101C08AE58093A2008BE48093C6
:10036000A3004DC0853019F42093B40048C08630F6
:1003700079F58B81813011F0823021F4CE01BEDE1F
:10038000282F22C08330F9F48A81882341F48DE933
:1003900090E09093B2008093B10024E015C08130CA
:1003A00041F481EA90E09093B2008093B10024E19F
:1003B0000BC0823041F485EB90E09093B2008093C3
:1003C000B10022E101C020E080E4809396001FC0CC
:1003D000883021F421E086EB90E014C0893019F4D4
:1003E0002093B60009C08A3011F421E009C08B3097
:1003F00031F48BE48093A3008AE58093A20020E08F
:1004000080EA90E09093B2008093B10009C02F3F42
:1004100039F4888187FD2E8180E88093960006C09C
:100420008F81882319F48E81821708F0822F8093A0
:10043000610010C08091960087FF0CC0CE017EDE67
:100440008F3F21F48EE18093600004C0882311F077
:10045000109261001092B3008091600084FF58C038
:10046000809161008F3F09F453C0182F893008F044
:1004700018E0811B809361008091970098E889279C
:1004800080939700112391F18091960087FF08C017
:1004900088E990E0612F48DE182F893098F526C052
:1004A0002091B1003091B20086FF0DC0A8E9B0E004
:1004B00080E090E0F901E80FF91FE491ED930196D7
:1004C0001817C1F708C0912FD901E8E9F0E08D9124
:1004D00081939150E1F71150812F90E01F5F0196B9
:1004E000820F931F9093B2008093B10088E990E04F
:1004F000612F34D0612F6C5F6C3041F08FEF8093AF
:10050000610004C08FEF809361006EE16093600032
:1005100094E180B38C7049F49150D9F71092B400F3
:100520001092AE008AE58093A200DF91CF911F91D7
:100530000895A82FB92F80E090E041E050EA60953F
:1005400030E009C02D9182279795879510F0842778
:100550009527305EC8F36F5FA8F30895EADF8D93A7
:100560009D930895CF93CFB7CF93DF93C395839B8C
:10057000E9F7839B0BC0839B09C0839B07C0839BC8
:1005800005C0839B03C0839B01C08EC06F93C09145
:10059000B000DD27C954DF4F2F9365E5839B03C06F
:1005A0002F916F91E6CF0F931F934F9320E040E17F
:1005B0005F9300B30C7003FB27F93F9350E03BE0DF
:1005C00039C01C7040642F77012F5F5F1EC04068E8
:1005D00010B31C702F7752501FC0406400B32F77A8
:1005E0000C70D1F15F5F00C023C0406210B32F7761
:1005F0001C7091F15F5F00C025C00C701027515036
:1006000012F45D5F0000115027952C3F10B3C8F61F
:100610001C700127015027952C3FC8F642274993AB
:1006200000B30C7010274F73115027952C3FA8F67C
:100630004695469510B31C7079F001270150279517
:100640002C3F98F66B5A60F3315000B3B0F600C0FF
:1006500010E41ABF00271CC03B503195C31BD0408B
:1006600010E41ABF0881033C21F10B3411F12091F1
:10067000AE001981110F1213EDCF4A81441F0936C4
:1006800069F10D3211F0013E29F74F7009F0042F86
:100690000093B5003F915F914F911F910F912F9162
:1006A0006F91CAB7C6FD62CFDF91CF91CFBFCF9117
:1006B00018952091B500222369F31091B3001123FE
:1006C00091F5343092F13093B3002093AF00109144
:1006D000B0003BE0311B3093B00027C00091B30065
:1006E00001300CF50AE54F7049F43091600034FD9B
:1006F0001DC000936000C7E9D0E01CC03091A2008B
:1007000034FD14C00093A200C3EAD0E013C0052753
:1007100010E000C0000002BB1AC0052710E0221F35
:100720001DC010E021C04AE502C032ED432FC4E1F4
:10073000D0E032E011B31C60939A02B311BB5CE0CD
:1007400020E865E320FF052702BB279517951C3F8E
:10075000F0F66695B8F7B1F720FF052702BB27959D
:1007600017951C3FD0F62795179517FF0527000012
:100770001C3F02BBB0F629913A9519F7037F1091FF
:10078000B400110FC651D04002BB11F01093AE005F
:1007900010E41ABF086011B3137F402F437F54E069
:1007A0005A95F1F702BB11BB42BB74CFF894FFCF4F
:0207B0005AFFEE
:00000001FF
